{
  "contractName": "FinalizableCrowdsaleImpl",
  "abi": [
    {
      "inputs": [
        {
          "internalType": "uint256",
          "name": "openingTime",
          "type": "uint256"
        },
        {
          "internalType": "uint256",
          "name": "closingTime",
          "type": "uint256"
        },
        {
          "internalType": "uint256",
          "name": "rate",
          "type": "uint256"
        },
        {
          "internalType": "address payable",
          "name": "wallet",
          "type": "address"
        },
        {
          "internalType": "contract IERC20",
          "name": "token",
          "type": "address"
        }
      ],
      "stateMutability": "nonpayable",
      "type": "constructor"
    },
    {
      "anonymous": false,
      "inputs": [],
      "name": "CrowdsaleFinalized",
      "type": "event"
    },
    {
      "anonymous": false,
      "inputs": [
        {
          "indexed": false,
          "internalType": "uint256",
          "name": "prevClosingTime",
          "type": "uint256"
        },
        {
          "indexed": false,
          "internalType": "uint256",
          "name": "newClosingTime",
          "type": "uint256"
        }
      ],
      "name": "TimedCrowdsaleExtended",
      "type": "event"
    },
    {
      "anonymous": false,
      "inputs": [
        {
          "indexed": true,
          "internalType": "address",
          "name": "purchaser",
          "type": "address"
        },
        {
          "indexed": true,
          "internalType": "address",
          "name": "beneficiary",
          "type": "address"
        },
        {
          "indexed": false,
          "internalType": "uint256",
          "name": "value",
          "type": "uint256"
        },
        {
          "indexed": false,
          "internalType": "uint256",
          "name": "amount",
          "type": "uint256"
        }
      ],
      "name": "TokensPurchased",
      "type": "event"
    },
    {
      "inputs": [
        {
          "internalType": "address",
          "name": "beneficiary",
          "type": "address"
        }
      ],
      "name": "buyTokens",
      "outputs": [],
      "stateMutability": "payable",
      "type": "function"
    },
    {
      "inputs": [],
      "name": "closingTime",
      "outputs": [
        {
          "internalType": "uint256",
          "name": "",
          "type": "uint256"
        }
      ],
      "stateMutability": "view",
      "type": "function"
    },
    {
      "inputs": [],
      "name": "finalize",
      "outputs": [],
      "stateMutability": "nonpayable",
      "type": "function"
    },
    {
      "inputs": [],
      "name": "finalized",
      "outputs": [
        {
          "internalType": "bool",
          "name": "",
          "type": "bool"
        }
      ],
      "stateMutability": "view",
      "type": "function"
    },
    {
      "inputs": [],
      "name": "hasClosed",
      "outputs": [
        {
          "internalType": "bool",
          "name": "",
          "type": "bool"
        }
      ],
      "stateMutability": "view",
      "type": "function"
    },
    {
      "inputs": [],
      "name": "isOpen",
      "outputs": [
        {
          "internalType": "bool",
          "name": "",
          "type": "bool"
        }
      ],
      "stateMutability": "view",
      "type": "function"
    },
    {
      "inputs": [],
      "name": "openingTime",
      "outputs": [
        {
          "internalType": "uint256",
          "name": "",
          "type": "uint256"
        }
      ],
      "stateMutability": "view",
      "type": "function"
    },
    {
      "inputs": [],
      "name": "rate",
      "outputs": [
        {
          "internalType": "uint256",
          "name": "",
          "type": "uint256"
        }
      ],
      "stateMutability": "view",
      "type": "function"
    },
    {
      "inputs": [],
      "name": "token",
      "outputs": [
        {
          "internalType": "contract IERC20",
          "name": "",
          "type": "address"
        }
      ],
      "stateMutability": "view",
      "type": "function"
    },
    {
      "inputs": [],
      "name": "wallet",
      "outputs": [
        {
          "internalType": "address payable",
          "name": "",
          "type": "address"
        }
      ],
      "stateMutability": "view",
      "type": "function"
    },
    {
      "inputs": [],
      "name": "weiRaised",
      "outputs": [
        {
          "internalType": "uint256",
          "name": "",
          "type": "uint256"
        }
      ],
      "stateMutability": "view",
      "type": "function"
    },
    {
      "stateMutability": "payable",
      "type": "receive"
    }
  ],
  "bytecode": "0x60806040523480156200001157600080fd5b50604051620019ec380380620019ec833981810160405281019062000037919062000302565b84848484846001600081905550600083116200008a576040517f08c379a00000000000000000000000000000000000000000000000000000000081526004016200008190620005cc565b60405180910390fd5b600073ffffffffffffffffffffffffffffffffffffffff168273ffffffffffffffffffffffffffffffffffffffff161415620000fd576040517f08c379a0000000000000000000000000000000000000000000000000000000008152600401620000f490620005ee565b60405180910390fd5b600073ffffffffffffffffffffffffffffffffffffffff168173ffffffffffffffffffffffffffffffffffffffff16141562000170576040517f08c379a00000000000000000000000000000000000000000000000000000000081526004016200016790620005aa565b60405180910390fd5b8260038190555081600260006101000a81548173ffffffffffffffffffffffffffffffffffffffff021916908373ffffffffffffffffffffffffffffffffffffffff16021790555080600160006101000a81548173ffffffffffffffffffffffffffffffffffffffff021916908373ffffffffffffffffffffffffffffffffffffffff1602179055505050504282101562000242576040517f08c379a0000000000000000000000000000000000000000000000000000000008152600401620002399062000566565b60405180910390fd5b81811162000287576040517f08c379a00000000000000000000000000000000000000000000000000000000081526004016200027e9062000588565b60405180910390fd5b816005819055508060068190555050506000600760006101000a81548160ff0219169083151502179055505050505050620006d5565b600081519050620002ce8162000687565b92915050565b600081519050620002e581620006a1565b92915050565b600081519050620002fc81620006bb565b92915050565b600080600080600060a086880312156200031b57600080fd5b60006200032b88828901620002eb565b95505060206200033e88828901620002eb565b94505060406200035188828901620002eb565b93505060606200036488828901620002bd565b92505060806200037788828901620002d4565b9150509295509295909350565b60006200039360338362000610565b91507f54696d656443726f776473616c653a206f70656e696e672074696d652069732060008301527f6265666f72652063757272656e742074696d65000000000000000000000000006020830152604082019050919050565b6000620003fb60378362000610565b91507f54696d656443726f776473616c653a206f70656e696e672074696d652069732060008301527f6e6f74206265666f726520636c6f73696e672074696d650000000000000000006020830152604082019050919050565b60006200046360248362000610565b91507f43726f776473616c653a20746f6b656e20697320746865207a65726f2061646460008301527f72657373000000000000000000000000000000000000000000000000000000006020830152604082019050919050565b6000620004cb60148362000610565b91507f43726f776473616c653a207261746520697320300000000000000000000000006000830152602082019050919050565b60006200050d60258362000610565b91507f43726f776473616c653a2077616c6c657420697320746865207a65726f20616460008301527f64726573730000000000000000000000000000000000000000000000000000006020830152604082019050919050565b60006020820190508181036000830152620005818162000384565b9050919050565b60006020820190508181036000830152620005a381620003ec565b9050919050565b60006020820190508181036000830152620005c58162000454565b9050919050565b60006020820190508181036000830152620005e781620004bc565b9050919050565b600060208201905081810360008301526200060981620004fe565b9050919050565b600082825260208201905092915050565b60006200062e826200065d565b9050919050565b600062000642826200065d565b9050919050565b6000620006568262000621565b9050919050565b600073ffffffffffffffffffffffffffffffffffffffff82169050919050565b6000819050919050565b620006928162000635565b81146200069e57600080fd5b50565b620006ac8162000649565b8114620006b857600080fd5b50565b620006c6816200067d565b8114620006d257600080fd5b50565b61130780620006e56000396000f3fe6080604052600436106100bd576000357c0100000000000000000000000000000000000000000000000000000000900480634bb278f3116100815780634bb278f3146101b0578063521eb273146101c7578063b3f05b97146101f2578063b7a8807c1461021d578063ec8ac4d814610248578063fc0c546a14610264576100d4565b80631515bc2b146100d95780632c4e722e146101045780634042b66f1461012f57806347535d7b1461015a5780634b6753bc14610185576100d4565b366100d4576100d26100cd61028f565b610297565b005b600080fd5b3480156100e557600080fd5b506100ee6103bd565b6040516100fb9190610f14565b60405180910390f35b34801561011057600080fd5b506101196103c9565b604051610126919061108c565b60405180910390f35b34801561013b57600080fd5b506101446103d3565b604051610151919061108c565b60405180910390f35b34801561016657600080fd5b5061016f6103dd565b60405161017c9190610f14565b60405180910390f35b34801561019157600080fd5b5061019a6103f8565b6040516101a7919061108c565b60405180910390f35b3480156101bc57600080fd5b506101c5610402565b005b3480156101d357600080fd5b506101dc6104ea565b6040516101e99190610ed0565b60405180910390f35b3480156101fe57600080fd5b50610207610514565b6040516102149190610f14565b60405180910390f35b34801561022957600080fd5b5061023261052b565b60405161023f919061108c565b60405180910390f35b610262600480360381019061025d9190610ada565b610297565b005b34801561027057600080fd5b50610279610535565b6040516102869190610f2f565b60405180910390f35b600033905090565b600260005414156102dd576040517f08c379a00000000000000000000000000000000000000000000000000000000081526004016102d49061104c565b60405180910390fd5b600260008190555060003490506102f4828261055f565b60006102ff826105b4565b9050610316826004546105d290919063ffffffff16565b60048190555061032683826105e8565b8273ffffffffffffffffffffffffffffffffffffffff1661034561028f565b73ffffffffffffffffffffffffffffffffffffffff167f6faf93231a456e552dbc9961f58d9713ee4f2e69d15f1975b050ef0911053a7b848460405161038c9291906110a7565b60405180910390a361039e83836105f6565b6103a66105fa565b6103b08383610665565b5050600160008190555050565b60006006544211905090565b6000600354905090565b6000600454905090565b600060055442101580156103f357506006544211155b905090565b6000600654905090565b600760009054906101000a900460ff1615610452576040517f08c379a000000000000000000000000000000000000000000000000000000000815260040161044990610fcc565b60405180910390fd5b61045a6103bd565b610499576040517f08c379a000000000000000000000000000000000000000000000000000000000815260040161049090610f8c565b60405180910390fd5b6001600760006101000a81548160ff0219169083151502179055506104bc610669565b7f9270cc390c096600a1c17c44345a1ba689fafd99d97487b10cfccf86cf73183660405160405180910390a1565b6000600260009054906101000a900473ffffffffffffffffffffffffffffffffffffffff16905090565b6000600760009054906101000a900460ff16905090565b6000600554905090565b6000600160009054906101000a900473ffffffffffffffffffffffffffffffffffffffff16905090565b6105676103dd565b6105a6576040517f08c379a000000000000000000000000000000000000000000000000000000000815260040161059d90610f6c565b60405180910390fd5b6105b0828261066b565b5050565b60006105cb6003548361072390919063ffffffff16565b9050919050565b600081836105e09190611102565b905092915050565b6105f28282610739565b5050565b5050565b600260009054906101000a900473ffffffffffffffffffffffffffffffffffffffff1673ffffffffffffffffffffffffffffffffffffffff166108fc349081150290604051600060405180830381858888f19350505050158015610662573d6000803e3d6000fd5b50565b5050565b565b600073ffffffffffffffffffffffffffffffffffffffff168273ffffffffffffffffffffffffffffffffffffffff1614156106db576040517f08c379a00000000000000000000000000000000000000000000000000000000081526004016106d290610fec565b60405180910390fd5b600081141561071f576040517f08c379a00000000000000000000000000000000000000000000000000000000081526004016107169061106c565b60405180910390fd5b5050565b600081836107319190611158565b905092915050565b6107868282600160009054906101000a900473ffffffffffffffffffffffffffffffffffffffff1673ffffffffffffffffffffffffffffffffffffffff1661078a9092919063ffffffff16565b5050565b6108278363a9059cbb7c01000000000000000000000000000000000000000000000000000000000284846040516024016107c5929190610eeb565b604051602081830303815290604052907bffffffffffffffffffffffffffffffffffffffffffffffffffffffff19166020820180517bffffffffffffffffffffffffffffffffffffffffffffffffffffffff838183161783525050505061082c565b505050565b600061088e826040518060400160405280602081526020017f5361666545524332303a206c6f772d6c6576656c2063616c6c206661696c65648152508573ffffffffffffffffffffffffffffffffffffffff166108f39092919063ffffffff16565b90506000815111156108ee57808060200190518101906108ae9190610b03565b6108ed576040517f08c379a00000000000000000000000000000000000000000000000000000000081526004016108e49061102c565b60405180910390fd5b5b505050565b6060610902848460008561090b565b90509392505050565b6060823073ffffffffffffffffffffffffffffffffffffffff16311015610967576040517f08c379a000000000000000000000000000000000000000000000000000000000815260040161095e90610fac565b60405180910390fd5b61097085610a36565b6109af576040517f08c379a00000000000000000000000000000000000000000000000000000000081526004016109a69061100c565b60405180910390fd5b6000808673ffffffffffffffffffffffffffffffffffffffff1685876040516109d89190610eb9565b60006040518083038185875af1925050503d8060008114610a15576040519150601f19603f3d011682016040523d82523d6000602084013e610a1a565b606091505b5091509150610a2a828286610a49565b92505050949350505050565b600080823b905060008111915050919050565b60608315610a5957829050610aa9565b600083511115610a6c5782518084602001fd5b816040517f08c379a0000000000000000000000000000000000000000000000000000000008152600401610aa09190610f4a565b60405180910390fd5b9392505050565b600081359050610abf816112a3565b92915050565b600081519050610ad4816112ba565b92915050565b600060208284031215610aec57600080fd5b6000610afa84828501610ab0565b91505092915050565b600060208284031215610b1557600080fd5b6000610b2384828501610ac5565b91505092915050565b610b35816111c4565b82525050565b610b44816111b2565b82525050565b610b53816111d6565b82525050565b6000610b64826110d0565b610b6e81856110e6565b9350610b7e818560208601611230565b80840191505092915050565b610b938161120c565b82525050565b6000610ba4826110db565b610bae81856110f1565b9350610bbe818560208601611230565b610bc781611292565b840191505092915050565b6000610bdf6018836110f1565b91507f54696d656443726f776473616c653a206e6f74206f70656e00000000000000006000830152602082019050919050565b6000610c1f6020836110f1565b91507f46696e616c697a61626c6543726f776473616c653a206e6f7420636c6f7365646000830152602082019050919050565b6000610c5f6026836110f1565b91507f416464726573733a20696e73756666696369656e742062616c616e636520666f60008301527f722063616c6c00000000000000000000000000000000000000000000000000006020830152604082019050919050565b6000610cc56027836110f1565b91507f46696e616c697a61626c6543726f776473616c653a20616c726561647920666960008301527f6e616c697a6564000000000000000000000000000000000000000000000000006020830152604082019050919050565b6000610d2b602a836110f1565b91507f43726f776473616c653a2062656e656669636961727920697320746865207a6560008301527f726f2061646472657373000000000000000000000000000000000000000000006020830152604082019050919050565b6000610d91601d836110f1565b91507f416464726573733a2063616c6c20746f206e6f6e2d636f6e74726163740000006000830152602082019050919050565b6000610dd1602a836110f1565b91507f5361666545524332303a204552433230206f7065726174696f6e20646964206e60008301527f6f742073756363656564000000000000000000000000000000000000000000006020830152604082019050919050565b6000610e37601f836110f1565b91507f5265656e7472616e637947756172643a207265656e7472616e742063616c6c006000830152602082019050919050565b6000610e776019836110f1565b91507f43726f776473616c653a20776569416d6f756e742069732030000000000000006000830152602082019050919050565b610eb381611202565b82525050565b6000610ec58284610b59565b915081905092915050565b6000602082019050610ee56000830184610b2c565b92915050565b6000604082019050610f006000830185610b3b565b610f0d6020830184610eaa565b9392505050565b6000602082019050610f296000830184610b4a565b92915050565b6000602082019050610f446000830184610b8a565b92915050565b60006020820190508181036000830152610f648184610b99565b905092915050565b60006020820190508181036000830152610f8581610bd2565b9050919050565b60006020820190508181036000830152610fa581610c12565b9050919050565b60006020820190508181036000830152610fc581610c52565b9050919050565b60006020820190508181036000830152610fe581610cb8565b9050919050565b6000602082019050818103600083015261100581610d1e565b9050919050565b6000602082019050818103600083015261102581610d84565b9050919050565b6000602082019050818103600083015261104581610dc4565b9050919050565b6000602082019050818103600083015261106581610e2a565b9050919050565b6000602082019050818103600083015261108581610e6a565b9050919050565b60006020820190506110a16000830184610eaa565b92915050565b60006040820190506110bc6000830185610eaa565b6110c96020830184610eaa565b9392505050565b600081519050919050565b600081519050919050565b600081905092915050565b600082825260208201905092915050565b600061110d82611202565b915061111883611202565b9250827fffffffffffffffffffffffffffffffffffffffffffffffffffffffffffffffff0382111561114d5761114c611263565b5b828201905092915050565b600061116382611202565b915061116e83611202565b9250817fffffffffffffffffffffffffffffffffffffffffffffffffffffffffffffffff04831182151516156111a7576111a6611263565b5b828202905092915050565b60006111bd826111e2565b9050919050565b60006111cf826111e2565b9050919050565b60008115159050919050565b600073ffffffffffffffffffffffffffffffffffffffff82169050919050565b6000819050919050565b60006112178261121e565b9050919050565b6000611229826111e2565b9050919050565b60005b8381101561124e578082015181840152602081019050611233565b8381111561125d576000848401525b50505050565b7f4e487b7100000000000000000000000000000000000000000000000000000000600052601160045260246000fd5b6000601f19601f8301169050919050565b6112ac816111b2565b81146112b757600080fd5b50565b6112c3816111d6565b81146112ce57600080fd5b5056fea2646970667358221220ae7f5a0b81c33f77359095c5012cfb49722f7c1343627c545e8f5a586ec0e6b564736f6c63430008000033",
  "immutableReferences": {},
  "source": "pragma solidity ^0.8.0;\n\nimport \"@openzeppelin/contracts/token/ERC20/IERC20.sol\";\nimport \"../crowdsale/FinalizableCrowdsale.sol\";\n\ncontract FinalizableCrowdsaleImpl is FinalizableCrowdsale {\n    constructor (uint256 openingTime, uint256 closingTime, uint256 rate, address payable wallet, IERC20 token)\n        Crowdsale(rate, wallet, token)\n        TimedCrowdsale(openingTime, closingTime)\n    {\n    }\n}\n",
  "sourcePath": "/Users/imollov/Projects/smart-charity/contracts/mocks/FinalizableCrowdsaleImpl.sol",
  "compiler": {
    "name": "solc",
    "version": "0.8.0+commit.c7dfd78e.Emscripten.clang"
  },
  "schemaVersion": "3.4.1",
  "updatedAt": "2021-07-30T14:11:09.495Z",
  "devdoc": {
    "kind": "dev",
    "methods": {
      "buyTokens(address)": {
        "details": "low level token purchase ***DO NOT OVERRIDE*** This function has a non-reentrancy guard, so it shouldn't be called by another `nonReentrant` function.",
        "params": {
          "beneficiary": "Recipient of the token purchase"
        }
      },
      "closingTime()": {
        "returns": {
          "_0": "the crowdsale closing time."
        }
      },
      "finalize()": {
        "details": "Must be called after crowdsale ends, to do some extra finalization work. Calls the contract's finalization function."
      },
      "finalized()": {
        "returns": {
          "_0": "true if the crowdsale is finalized, false otherwise."
        }
      },
      "hasClosed()": {
        "details": "Checks whether the period in which the crowdsale is open has already elapsed.",
        "returns": {
          "_0": "Whether crowdsale period has elapsed"
        }
      },
      "isOpen()": {
        "returns": {
          "_0": "true if the crowdsale is open, false otherwise."
        }
      },
      "openingTime()": {
        "returns": {
          "_0": "the crowdsale opening time."
        }
      },
      "rate()": {
        "returns": {
          "_0": "the number of token units a buyer gets per wei."
        }
      },
      "token()": {
        "returns": {
          "_0": "the token being sold."
        }
      },
      "wallet()": {
        "returns": {
          "_0": "the address where funds are collected."
        }
      },
      "weiRaised()": {
        "returns": {
          "_0": "the amount of wei raised."
        }
      }
    },
    "version": 1
  },
  "userdoc": {
    "events": {
      "TimedCrowdsaleExtended(uint256,uint256)": {
        "notice": "Event for crowdsale extending"
      },
      "TokensPurchased(address,address,uint256,uint256)": {
        "notice": "Event for token purchase logging"
      }
    },
    "kind": "user",
    "methods": {},
    "version": 1
  }
}