{
  "contractName": "RefundableCrowdsaleImpl",
  "abi": [
    {
      "inputs": [
        {
          "internalType": "uint256",
          "name": "openingTime",
          "type": "uint256"
        },
        {
          "internalType": "uint256",
          "name": "closingTime",
          "type": "uint256"
        },
        {
          "internalType": "uint256",
          "name": "rate",
          "type": "uint256"
        },
        {
          "internalType": "address payable",
          "name": "wallet",
          "type": "address"
        },
        {
          "internalType": "contract IERC20",
          "name": "token",
          "type": "address"
        },
        {
          "internalType": "uint256",
          "name": "goal",
          "type": "uint256"
        }
      ],
      "stateMutability": "nonpayable",
      "type": "constructor"
    },
    {
      "anonymous": false,
      "inputs": [],
      "name": "CrowdsaleFinalized",
      "type": "event"
    },
    {
      "anonymous": false,
      "inputs": [
        {
          "indexed": false,
          "internalType": "uint256",
          "name": "prevClosingTime",
          "type": "uint256"
        },
        {
          "indexed": false,
          "internalType": "uint256",
          "name": "newClosingTime",
          "type": "uint256"
        }
      ],
      "name": "TimedCrowdsaleExtended",
      "type": "event"
    },
    {
      "anonymous": false,
      "inputs": [
        {
          "indexed": true,
          "internalType": "address",
          "name": "purchaser",
          "type": "address"
        },
        {
          "indexed": true,
          "internalType": "address",
          "name": "beneficiary",
          "type": "address"
        },
        {
          "indexed": false,
          "internalType": "uint256",
          "name": "value",
          "type": "uint256"
        },
        {
          "indexed": false,
          "internalType": "uint256",
          "name": "amount",
          "type": "uint256"
        }
      ],
      "name": "TokensPurchased",
      "type": "event"
    },
    {
      "inputs": [
        {
          "internalType": "address",
          "name": "beneficiary",
          "type": "address"
        }
      ],
      "name": "buyTokens",
      "outputs": [],
      "stateMutability": "payable",
      "type": "function"
    },
    {
      "inputs": [
        {
          "internalType": "address payable",
          "name": "refundee",
          "type": "address"
        }
      ],
      "name": "claimRefund",
      "outputs": [],
      "stateMutability": "nonpayable",
      "type": "function"
    },
    {
      "inputs": [],
      "name": "closingTime",
      "outputs": [
        {
          "internalType": "uint256",
          "name": "",
          "type": "uint256"
        }
      ],
      "stateMutability": "view",
      "type": "function"
    },
    {
      "inputs": [],
      "name": "finalize",
      "outputs": [],
      "stateMutability": "nonpayable",
      "type": "function"
    },
    {
      "inputs": [],
      "name": "finalized",
      "outputs": [
        {
          "internalType": "bool",
          "name": "",
          "type": "bool"
        }
      ],
      "stateMutability": "view",
      "type": "function"
    },
    {
      "inputs": [],
      "name": "goal",
      "outputs": [
        {
          "internalType": "uint256",
          "name": "",
          "type": "uint256"
        }
      ],
      "stateMutability": "view",
      "type": "function"
    },
    {
      "inputs": [],
      "name": "goalReached",
      "outputs": [
        {
          "internalType": "bool",
          "name": "",
          "type": "bool"
        }
      ],
      "stateMutability": "view",
      "type": "function"
    },
    {
      "inputs": [],
      "name": "hasClosed",
      "outputs": [
        {
          "internalType": "bool",
          "name": "",
          "type": "bool"
        }
      ],
      "stateMutability": "view",
      "type": "function"
    },
    {
      "inputs": [],
      "name": "isOpen",
      "outputs": [
        {
          "internalType": "bool",
          "name": "",
          "type": "bool"
        }
      ],
      "stateMutability": "view",
      "type": "function"
    },
    {
      "inputs": [],
      "name": "openingTime",
      "outputs": [
        {
          "internalType": "uint256",
          "name": "",
          "type": "uint256"
        }
      ],
      "stateMutability": "view",
      "type": "function"
    },
    {
      "inputs": [],
      "name": "rate",
      "outputs": [
        {
          "internalType": "uint256",
          "name": "",
          "type": "uint256"
        }
      ],
      "stateMutability": "view",
      "type": "function"
    },
    {
      "inputs": [],
      "name": "token",
      "outputs": [
        {
          "internalType": "contract IERC20",
          "name": "",
          "type": "address"
        }
      ],
      "stateMutability": "view",
      "type": "function"
    },
    {
      "inputs": [],
      "name": "wallet",
      "outputs": [
        {
          "internalType": "address payable",
          "name": "",
          "type": "address"
        }
      ],
      "stateMutability": "view",
      "type": "function"
    },
    {
      "inputs": [],
      "name": "weiRaised",
      "outputs": [
        {
          "internalType": "uint256",
          "name": "",
          "type": "uint256"
        }
      ],
      "stateMutability": "view",
      "type": "function"
    },
    {
      "stateMutability": "payable",
      "type": "receive"
    }
  ],
  "bytecode": "0x60806040523480156200001157600080fd5b5060405162003cab38038062003cab83398181016040528101906200003791906200041b565b8086868686866001600081905550600083116200008b576040517f08c379a000000000000000000000000000000000000000000000000000000000815260040162000082906200078b565b60405180910390fd5b600073ffffffffffffffffffffffffffffffffffffffff168273ffffffffffffffffffffffffffffffffffffffff161415620000fe576040517f08c379a0000000000000000000000000000000000000000000000000000000008152600401620000f590620007ad565b60405180910390fd5b600073ffffffffffffffffffffffffffffffffffffffff168173ffffffffffffffffffffffffffffffffffffffff16141562000171576040517f08c379a0000000000000000000000000000000000000000000000000000000008152600401620001689062000769565b60405180910390fd5b8260038190555081600260006101000a81548173ffffffffffffffffffffffffffffffffffffffff021916908373ffffffffffffffffffffffffffffffffffffffff16021790555080600160006101000a81548173ffffffffffffffffffffffffffffffffffffffff021916908373ffffffffffffffffffffffffffffffffffffffff1602179055505050504282101562000243576040517f08c379a00000000000000000000000000000000000000000000000000000000081526004016200023a9062000703565b60405180910390fd5b81811162000288576040517f08c379a00000000000000000000000000000000000000000000000000000000081526004016200027f9062000747565b60405180910390fd5b816005819055508060068190555050506000600760006101000a81548160ff02191690831515021790555060008111620002f9576040517f08c379a0000000000000000000000000000000000000000000000000000000008152600401620002f09062000725565b60405180910390fd5b620003126200039e640100000000026401000000009004565b6040516200032090620003c8565b6200032c9190620006e6565b604051809103906000f08015801562000349573d6000803e3d6000fd5b50600960006101000a81548173ffffffffffffffffffffffffffffffffffffffff021916908373ffffffffffffffffffffffffffffffffffffffff160217905550806008819055505050505050505062000894565b6000600260009054906101000a900473ffffffffffffffffffffffffffffffffffffffff16905090565b611b2c806200217f83390190565b600081519050620003e78162000846565b92915050565b600081519050620003fe8162000860565b92915050565b60008151905062000415816200087a565b92915050565b60008060008060008060c087890312156200043557600080fd5b60006200044589828a0162000404565b96505060206200045889828a0162000404565b95505060406200046b89828a0162000404565b94505060606200047e89828a01620003d6565b93505060806200049189828a01620003ed565b92505060a0620004a489828a0162000404565b9150509295509295509295565b620004bc81620007f4565b82525050565b6000620004d1603383620007cf565b91507f54696d656443726f776473616c653a206f70656e696e672074696d652069732060008301527f6265666f72652063757272656e742074696d65000000000000000000000000006020830152604082019050919050565b600062000539601e83620007cf565b91507f526566756e6461626c6543726f776473616c653a20676f616c206973203000006000830152602082019050919050565b60006200057b603783620007cf565b91507f54696d656443726f776473616c653a206f70656e696e672074696d652069732060008301527f6e6f74206265666f726520636c6f73696e672074696d650000000000000000006020830152604082019050919050565b6000620005e3602483620007cf565b91507f43726f776473616c653a20746f6b656e20697320746865207a65726f2061646460008301527f72657373000000000000000000000000000000000000000000000000000000006020830152604082019050919050565b60006200064b601483620007cf565b91507f43726f776473616c653a207261746520697320300000000000000000000000006000830152602082019050919050565b60006200068d602583620007cf565b91507f43726f776473616c653a2077616c6c657420697320746865207a65726f20616460008301527f64726573730000000000000000000000000000000000000000000000000000006020830152604082019050919050565b6000602082019050620006fd6000830184620004b1565b92915050565b600060208201905081810360008301526200071e81620004c2565b9050919050565b6000602082019050818103600083015262000740816200052a565b9050919050565b6000602082019050818103600083015262000762816200056c565b9050919050565b600060208201905081810360008301526200078481620005d4565b9050919050565b60006020820190508181036000830152620007a6816200063c565b9050919050565b60006020820190508181036000830152620007c8816200067e565b9050919050565b600082825260208201905092915050565b6000620007ed826200081c565b9050919050565b600062000801826200081c565b9050919050565b60006200081582620007e0565b9050919050565b600073ffffffffffffffffffffffffffffffffffffffff82169050919050565b6000819050919050565b6200085181620007f4565b81146200085d57600080fd5b50565b6200086b8162000808565b81146200087757600080fd5b50565b62000885816200083c565b81146200089157600080fd5b50565b6118db80620008a46000396000f3fe6080604052600436106100fe576000357c010000000000000000000000000000000000000000000000000000000090048063521eb2731161009c578063b7a8807c11610076578063b7a8807c146102b4578063bffa55d5146102df578063ec8ac4d814610308578063fc0c546a1461032457610115565b8063521eb273146102335780637d3d65221461025e578063b3f05b971461028957610115565b80634042b66f116100d85780634042b66f1461019b57806347535d7b146101c65780634b6753bc146101f15780634bb278f31461021c57610115565b80631515bc2b1461011a5780632c4e722e14610145578063401938831461017057610115565b366101155761011361010e61034f565b610357565b005b600080fd5b34801561012657600080fd5b5061012f61047d565b60405161013c9190611491565b60405180910390f35b34801561015157600080fd5b5061015a610489565b6040516101679190611649565b60405180910390f35b34801561017c57600080fd5b50610185610493565b6040516101929190611649565b60405180910390f35b3480156101a757600080fd5b506101b061049d565b6040516101bd9190611649565b60405180910390f35b3480156101d257600080fd5b506101db6104a7565b6040516101e89190611491565b60405180910390f35b3480156101fd57600080fd5b506102066104c2565b6040516102139190611649565b60405180910390f35b34801561022857600080fd5b506102316104cc565b005b34801561023f57600080fd5b506102486105b4565b604051610255919061144d565b60405180910390f35b34801561026a57600080fd5b506102736105de565b6040516102809190611491565b60405180910390f35b34801561029557600080fd5b5061029e6105f2565b6040516102ab9190611491565b60405180910390f35b3480156102c057600080fd5b506102c9610609565b6040516102d69190611649565b60405180910390f35b3480156102eb57600080fd5b5061030660048036038101906103019190610f70565b610613565b005b610322600480360381019061031d9190610f47565b610357565b005b34801561033057600080fd5b5061033961074e565b60405161034691906114ac565b60405180910390f35b600033905090565b6002600054141561039d576040517f08c379a000000000000000000000000000000000000000000000000000000000815260040161039490611609565b60405180910390fd5b600260008190555060003490506103b48282610778565b60006103bf826107cd565b90506103d6826004546107eb90919063ffffffff16565b6004819055506103e68382610801565b8273ffffffffffffffffffffffffffffffffffffffff1661040561034f565b73ffffffffffffffffffffffffffffffffffffffff167f6faf93231a456e552dbc9961f58d9713ee4f2e69d15f1975b050ef0911053a7b848460405161044c929190611664565b60405180910390a361045e838361080f565b610466610813565b61047083836108c6565b5050600160008190555050565b60006006544211905090565b6000600354905090565b6000600854905090565b6000600454905090565b600060055442101580156104bd57506006544211155b905090565b6000600654905090565b600760009054906101000a900460ff161561051c576040517f08c379a000000000000000000000000000000000000000000000000000000000815260040161051390611549565b60405180910390fd5b61052461047d565b610563576040517f08c379a000000000000000000000000000000000000000000000000000000000815260040161055a90611509565b60405180910390fd5b6001600760006101000a81548160ff0219169083151502179055506105866108ca565b7f9270cc390c096600a1c17c44345a1ba689fafd99d97487b10cfccf86cf73183660405160405180910390a1565b6000600260009054906101000a900473ffffffffffffffffffffffffffffffffffffffff16905090565b60006008546105eb61049d565b1015905090565b6000600760009054906101000a900460ff16905090565b6000600554905090565b61061b6105f2565b61065a576040517f08c379a0000000000000000000000000000000000000000000000000000000008152600401610651906115a9565b60405180910390fd5b6106626105de565b156106a2576040517f08c379a000000000000000000000000000000000000000000000000000000000815260040161069990611569565b60405180910390fd5b600960009054906101000a900473ffffffffffffffffffffffffffffffffffffffff1673ffffffffffffffffffffffffffffffffffffffff166351cff8d9826040518263ffffffff167c0100000000000000000000000000000000000000000000000000000000028152600401610719919061144d565b600060405180830381600087803b15801561073357600080fd5b505af1158015610747573d6000803e3d6000fd5b5050505050565b6000600160009054906101000a900473ffffffffffffffffffffffffffffffffffffffff16905090565b6107806104a7565b6107bf576040517f08c379a00000000000000000000000000000000000000000000000000000000081526004016107b6906114e9565b60405180910390fd5b6107c98282610ac1565b5050565b60006107e460035483610b7990919063ffffffff16565b9050919050565b600081836107f991906116bf565b905092915050565b61080b8282610b8f565b5050565b5050565b600960009054906101000a900473ffffffffffffffffffffffffffffffffffffffff1673ffffffffffffffffffffffffffffffffffffffff1663f340fa013461085a61034f565b6040518363ffffffff167c01000000000000000000000000000000000000000000000000000000000281526004016108929190611432565b6000604051808303818588803b1580156108ab57600080fd5b505af11580156108bf573d6000803e3d6000fd5b5050505050565b5050565b6108d26105de565b15610a1857600960009054906101000a900473ffffffffffffffffffffffffffffffffffffffff1673ffffffffffffffffffffffffffffffffffffffff166343d726d66040518163ffffffff167c0100000000000000000000000000000000000000000000000000000000028152600401600060405180830381600087803b15801561095d57600080fd5b505af1158015610971573d6000803e3d6000fd5b50505050600960009054906101000a900473ffffffffffffffffffffffffffffffffffffffff1673ffffffffffffffffffffffffffffffffffffffff16639af6549a6040518163ffffffff167c0100000000000000000000000000000000000000000000000000000000028152600401600060405180830381600087803b1580156109fb57600080fd5b505af1158015610a0f573d6000803e3d6000fd5b50505050610ab7565b600960009054906101000a900473ffffffffffffffffffffffffffffffffffffffff1673ffffffffffffffffffffffffffffffffffffffff16638c52dc416040518163ffffffff167c0100000000000000000000000000000000000000000000000000000000028152600401600060405180830381600087803b158015610a9e57600080fd5b505af1158015610ab2573d6000803e3d6000fd5b505050505b610abf610be0565b565b600073ffffffffffffffffffffffffffffffffffffffff168273ffffffffffffffffffffffffffffffffffffffff161415610b31576040517f08c379a0000000000000000000000000000000000000000000000000000000008152600401610b2890611589565b60405180910390fd5b6000811415610b75576040517f08c379a0000000000000000000000000000000000000000000000000000000008152600401610b6c90611629565b60405180910390fd5b5050565b60008183610b879190611715565b905092915050565b610bdc8282600160009054906101000a900473ffffffffffffffffffffffffffffffffffffffff1673ffffffffffffffffffffffffffffffffffffffff16610be29092919063ffffffff16565b5050565b565b610c7f8363a9059cbb7c0100000000000000000000000000000000000000000000000000000000028484604051602401610c1d929190611468565b604051602081830303815290604052907bffffffffffffffffffffffffffffffffffffffffffffffffffffffff19166020820180517bffffffffffffffffffffffffffffffffffffffffffffffffffffffff8381831617835250505050610c84565b505050565b6000610ce6826040518060400160405280602081526020017f5361666545524332303a206c6f772d6c6576656c2063616c6c206661696c65648152508573ffffffffffffffffffffffffffffffffffffffff16610d4b9092919063ffffffff16565b9050600081511115610d465780806020019051810190610d069190610f99565b610d45576040517f08c379a0000000000000000000000000000000000000000000000000000000008152600401610d3c906115e9565b60405180910390fd5b5b505050565b6060610d5a8484600085610d63565b90509392505050565b6060823073ffffffffffffffffffffffffffffffffffffffff16311015610dbf576040517f08c379a0000000000000000000000000000000000000000000000000000000008152600401610db690611529565b60405180910390fd5b610dc885610e8e565b610e07576040517f08c379a0000000000000000000000000000000000000000000000000000000008152600401610dfe906115c9565b60405180910390fd5b6000808673ffffffffffffffffffffffffffffffffffffffff168587604051610e30919061141b565b60006040518083038185875af1925050503d8060008114610e6d576040519150601f19603f3d011682016040523d82523d6000602084013e610e72565b606091505b5091509150610e82828286610ea1565b92505050949350505050565b600080823b905060008111915050919050565b60608315610eb157829050610f01565b600083511115610ec45782518084602001fd5b816040517f08c379a0000000000000000000000000000000000000000000000000000000008152600401610ef891906114c7565b60405180910390fd5b9392505050565b600081359050610f1781611860565b92915050565b600081359050610f2c81611877565b92915050565b600081519050610f418161188e565b92915050565b600060208284031215610f5957600080fd5b6000610f6784828501610f08565b91505092915050565b600060208284031215610f8257600080fd5b6000610f9084828501610f1d565b91505092915050565b600060208284031215610fab57600080fd5b6000610fb984828501610f32565b91505092915050565b610fcb81611781565b82525050565b610fda8161176f565b82525050565b610fe981611793565b82525050565b6000610ffa8261168d565b61100481856116a3565b93506110148185602086016117ed565b80840191505092915050565b611029816117c9565b82525050565b600061103a82611698565b61104481856116ae565b93506110548185602086016117ed565b61105d8161184f565b840191505092915050565b60006110756018836116ae565b91507f54696d656443726f776473616c653a206e6f74206f70656e00000000000000006000830152602082019050919050565b60006110b56020836116ae565b91507f46696e616c697a61626c6543726f776473616c653a206e6f7420636c6f7365646000830152602082019050919050565b60006110f56026836116ae565b91507f416464726573733a20696e73756666696369656e742062616c616e636520666f60008301527f722063616c6c00000000000000000000000000000000000000000000000000006020830152604082019050919050565b600061115b6027836116ae565b91507f46696e616c697a61626c6543726f776473616c653a20616c726561647920666960008301527f6e616c697a6564000000000000000000000000000000000000000000000000006020830152604082019050919050565b60006111c16021836116ae565b91507f526566756e6461626c6543726f776473616c653a20676f616c2072656163686560008301527f64000000000000000000000000000000000000000000000000000000000000006020830152604082019050919050565b6000611227602a836116ae565b91507f43726f776473616c653a2062656e656669636961727920697320746865207a6560008301527f726f2061646472657373000000000000000000000000000000000000000000006020830152604082019050919050565b600061128d6022836116ae565b91507f526566756e6461626c6543726f776473616c653a206e6f742066696e616c697a60008301527f65640000000000000000000000000000000000000000000000000000000000006020830152604082019050919050565b60006112f3601d836116ae565b91507f416464726573733a2063616c6c20746f206e6f6e2d636f6e74726163740000006000830152602082019050919050565b6000611333602a836116ae565b91507f5361666545524332303a204552433230206f7065726174696f6e20646964206e60008301527f6f742073756363656564000000000000000000000000000000000000000000006020830152604082019050919050565b6000611399601f836116ae565b91507f5265656e7472616e637947756172643a207265656e7472616e742063616c6c006000830152602082019050919050565b60006113d96019836116ae565b91507f43726f776473616c653a20776569416d6f756e742069732030000000000000006000830152602082019050919050565b611415816117bf565b82525050565b60006114278284610fef565b915081905092915050565b60006020820190506114476000830184610fd1565b92915050565b60006020820190506114626000830184610fc2565b92915050565b600060408201905061147d6000830185610fd1565b61148a602083018461140c565b9392505050565b60006020820190506114a66000830184610fe0565b92915050565b60006020820190506114c16000830184611020565b92915050565b600060208201905081810360008301526114e1818461102f565b905092915050565b6000602082019050818103600083015261150281611068565b9050919050565b60006020820190508181036000830152611522816110a8565b9050919050565b60006020820190508181036000830152611542816110e8565b9050919050565b600060208201905081810360008301526115628161114e565b9050919050565b60006020820190508181036000830152611582816111b4565b9050919050565b600060208201905081810360008301526115a28161121a565b9050919050565b600060208201905081810360008301526115c281611280565b9050919050565b600060208201905081810360008301526115e2816112e6565b9050919050565b6000602082019050818103600083015261160281611326565b9050919050565b600060208201905081810360008301526116228161138c565b9050919050565b60006020820190508181036000830152611642816113cc565b9050919050565b600060208201905061165e600083018461140c565b92915050565b6000604082019050611679600083018561140c565b611686602083018461140c565b9392505050565b600081519050919050565b600081519050919050565b600081905092915050565b600082825260208201905092915050565b60006116ca826117bf565b91506116d5836117bf565b9250827fffffffffffffffffffffffffffffffffffffffffffffffffffffffffffffffff0382111561170a57611709611820565b5b828201905092915050565b6000611720826117bf565b915061172b836117bf565b9250817fffffffffffffffffffffffffffffffffffffffffffffffffffffffffffffffff048311821515161561176457611763611820565b5b828202905092915050565b600061177a8261179f565b9050919050565b600061178c8261179f565b9050919050565b60008115159050919050565b600073ffffffffffffffffffffffffffffffffffffffff82169050919050565b6000819050919050565b60006117d4826117db565b9050919050565b60006117e68261179f565b9050919050565b60005b8381101561180b5780820151818401526020810190506117f0565b8381111561181a576000848401525b50505050565b7f4e487b7100000000000000000000000000000000000000000000000000000000600052601160045260246000fd5b6000601f19601f8301169050919050565b6118698161176f565b811461187457600080fd5b50565b61188081611781565b811461188b57600080fd5b50565b61189781611793565b81146118a257600080fd5b5056fea264697066735822122063c3d8d4ea9b37d77a80b1bc1ca87e338a545657b06ec7d761eba34710c9a7ef64736f6c6343000800003360a06040523480156200001157600080fd5b5060405162001b2c38038062001b2c83398181016040528101906200003791906200021e565b600062000052620001ff640100000000026401000000009004565b9050806000806101000a81548173ffffffffffffffffffffffffffffffffffffffff021916908373ffffffffffffffffffffffffffffffffffffffff1602179055508073ffffffffffffffffffffffffffffffffffffffff16600073ffffffffffffffffffffffffffffffffffffffff167f8be0079c531659141344cd1fd0a4f28419497f9722a3daafe3b4186f6b6457e060405160405180910390a350600073ffffffffffffffffffffffffffffffffffffffff168173ffffffffffffffffffffffffffffffffffffffff16141562000163576040517f08c379a00000000000000000000000000000000000000000000000000000000081526004016200015a90620002b2565b60405180910390fd5b8073ffffffffffffffffffffffffffffffffffffffff1660808173ffffffffffffffffffffffffffffffffffffffff166c0100000000000000000000000002815250506000600260006101000a81548160ff02191690836002811115620001f3577f4e487b7100000000000000000000000000000000000000000000000000000000600052602160045260246000fd5b02179055505062000333565b600033905090565b600081519050620002188162000319565b92915050565b6000602082840312156200023157600080fd5b6000620002418482850162000207565b91505092915050565b600062000259602d83620002d4565b91507f526566756e64457363726f773a2062656e65666963696172792069732074686560008301527f207a65726f2061646472657373000000000000000000000000000000000000006020830152604082019050919050565b60006020820190508181036000830152620002cd816200024a565b9050919050565b600082825260208201905092915050565b6000620002f282620002f9565b9050919050565b600073ffffffffffffffffffffffffffffffffffffffff82169050919050565b6200032481620002e5565b81146200033057600080fd5b50565b6080516c0100000000000000000000000090046117cd6200035f600039600061029201526117cd6000f3fe6080604052600436106100c4576000357c0100000000000000000000000000000000000000000000000000000000900480638da5cb5b116100815780638da5cb5b1461019f5780639af6549a146101ca578063c19d93fb146101e1578063e3a9db1a1461020c578063f2fde38b14610249578063f340fa0114610272576100c4565b806338af3eed146100c957806343d726d6146100f457806351cff8d91461010b578063685ca19414610134578063715018a6146101715780638c52dc4114610188575b600080fd5b3480156100d557600080fd5b506100de61028e565b6040516100eb919061147a565b60405180910390f35b34801561010057600080fd5b506101096102b6565b005b34801561011757600080fd5b50610132600480360381019061012d9190611072565b61046a565b005b34801561014057600080fd5b5061015b60048036038101906101569190611049565b6104be565b6040516101689190611495565b60405180910390f35b34801561017d57600080fd5b50610186610542565b005b34801561019457600080fd5b5061019d61067c565b005b3480156101ab57600080fd5b506101b4610831565b6040516101c1919061145f565b60405180910390f35b3480156101d657600080fd5b506101df61085a565b005b3480156101ed57600080fd5b506101f661095c565b60405161020391906114b0565b60405180910390f35b34801561021857600080fd5b50610233600480360381019061022e9190611049565b610973565b60405161024091906115eb565b60405180910390f35b34801561025557600080fd5b50610270600480360381019061026b9190611049565b6109bc565b005b61028c60048036038101906102879190611049565b610b65565b005b60007f0000000000000000000000000000000000000000000000000000000000000000905090565b6102be610c2b565b73ffffffffffffffffffffffffffffffffffffffff166102dc610831565b73ffffffffffffffffffffffffffffffffffffffff1614610332576040517f08c379a0000000000000000000000000000000000000000000000000000000008152600401610329906115ab565b60405180910390fd5b6000600281111561036c577f4e487b7100000000000000000000000000000000000000000000000000000000600052602160045260246000fd5b61037461095c565b60028111156103ac577f4e487b7100000000000000000000000000000000000000000000000000000000600052602160045260246000fd5b146103ec576040517f08c379a00000000000000000000000000000000000000000000000000000000081526004016103e39061158b565b60405180910390fd5b60028060006101000a81548160ff02191690836002811115610437577f4e487b7100000000000000000000000000000000000000000000000000000000600052602160045260246000fd5b02179055507f088672c3a6e342f7cd94a65ba63b79df24a8973927b4d05d803c44bbf787d12f60405160405180910390a1565b610473816104be565b6104b2576040517f08c379a00000000000000000000000000000000000000000000000000000000081526004016104a99061156b565b60405180910390fd5b6104bb81610c33565b50565b6000600160028111156104fa577f4e487b7100000000000000000000000000000000000000000000000000000000600052602160045260246000fd5b61050261095c565b600281111561053a577f4e487b7100000000000000000000000000000000000000000000000000000000600052602160045260246000fd5b149050919050565b61054a610c2b565b73ffffffffffffffffffffffffffffffffffffffff16610568610831565b73ffffffffffffffffffffffffffffffffffffffff16146105be576040517f08c379a00000000000000000000000000000000000000000000000000000000081526004016105b5906115ab565b60405180910390fd5b600073ffffffffffffffffffffffffffffffffffffffff1660008054906101000a900473ffffffffffffffffffffffffffffffffffffffff1673ffffffffffffffffffffffffffffffffffffffff167f8be0079c531659141344cd1fd0a4f28419497f9722a3daafe3b4186f6b6457e060405160405180910390a360008060006101000a81548173ffffffffffffffffffffffffffffffffffffffff021916908373ffffffffffffffffffffffffffffffffffffffff160217905550565b610684610c2b565b73ffffffffffffffffffffffffffffffffffffffff166106a2610831565b73ffffffffffffffffffffffffffffffffffffffff16146106f8576040517f08c379a00000000000000000000000000000000000000000000000000000000081526004016106ef906115ab565b60405180910390fd5b60006002811115610732577f4e487b7100000000000000000000000000000000000000000000000000000000600052602160045260246000fd5b61073a61095c565b6002811115610772577f4e487b7100000000000000000000000000000000000000000000000000000000600052602160045260246000fd5b146107b2576040517f08c379a00000000000000000000000000000000000000000000000000000000081526004016107a9906115cb565b60405180910390fd5b6001600260006101000a81548160ff021916908360028111156107fe577f4e487b7100000000000000000000000000000000000000000000000000000000600052602160045260246000fd5b02179055507f599d8e5a83cffb867d051598c4d70e805d59802d8081c1c7d6dffc5b6aca2b8960405160405180910390a1565b60008060009054906101000a900473ffffffffffffffffffffffffffffffffffffffff16905090565b600280811115610893577f4e487b7100000000000000000000000000000000000000000000000000000000600052602160045260246000fd5b61089b61095c565b60028111156108d3577f4e487b7100000000000000000000000000000000000000000000000000000000600052602160045260246000fd5b14610913576040517f08c379a000000000000000000000000000000000000000000000000000000000815260040161090a906114cb565b60405180910390fd5b61095a3073ffffffffffffffffffffffffffffffffffffffff163161093661028e565b73ffffffffffffffffffffffffffffffffffffffff16610db390919063ffffffff16565b565b6000600260009054906101000a900460ff16905090565b6000600160008373ffffffffffffffffffffffffffffffffffffffff1673ffffffffffffffffffffffffffffffffffffffff168152602001908152602001600020549050919050565b6109c4610c2b565b73ffffffffffffffffffffffffffffffffffffffff166109e2610831565b73ffffffffffffffffffffffffffffffffffffffff1614610a38576040517f08c379a0000000000000000000000000000000000000000000000000000000008152600401610a2f906115ab565b60405180910390fd5b600073ffffffffffffffffffffffffffffffffffffffff168173ffffffffffffffffffffffffffffffffffffffff161415610aa8576040517f08c379a0000000000000000000000000000000000000000000000000000000008152600401610a9f906114eb565b60405180910390fd5b8073ffffffffffffffffffffffffffffffffffffffff1660008054906101000a900473ffffffffffffffffffffffffffffffffffffffff1673ffffffffffffffffffffffffffffffffffffffff167f8be0079c531659141344cd1fd0a4f28419497f9722a3daafe3b4186f6b6457e060405160405180910390a3806000806101000a81548173ffffffffffffffffffffffffffffffffffffffff021916908373ffffffffffffffffffffffffffffffffffffffff16021790555050565b60006002811115610b9f577f4e487b7100000000000000000000000000000000000000000000000000000000600052602160045260246000fd5b610ba761095c565b6002811115610bdf577f4e487b7100000000000000000000000000000000000000000000000000000000600052602160045260246000fd5b14610c1f576040517f08c379a0000000000000000000000000000000000000000000000000000000008152600401610c169061154b565b60405180910390fd5b610c2881610ebe565b50565b600033905090565b610c3b610c2b565b73ffffffffffffffffffffffffffffffffffffffff16610c59610831565b73ffffffffffffffffffffffffffffffffffffffff1614610caf576040517f08c379a0000000000000000000000000000000000000000000000000000000008152600401610ca6906115ab565b60405180910390fd5b6000600160008373ffffffffffffffffffffffffffffffffffffffff1673ffffffffffffffffffffffffffffffffffffffff1681526020019081526020016000205490506000600160008473ffffffffffffffffffffffffffffffffffffffff1673ffffffffffffffffffffffffffffffffffffffff16815260200190815260200160002081905550610d61818373ffffffffffffffffffffffffffffffffffffffff16610db390919063ffffffff16565b8173ffffffffffffffffffffffffffffffffffffffff167f7084f5476618d8e60b11ef0d7d3f06914655adb8793e28ff7f018d4c76d505d582604051610da791906115eb565b60405180910390a25050565b803073ffffffffffffffffffffffffffffffffffffffff16311015610e0d576040517f08c379a0000000000000000000000000000000000000000000000000000000008152600401610e049061152b565b60405180910390fd5b60008273ffffffffffffffffffffffffffffffffffffffff1682604051610e339061144a565b60006040518083038185875af1925050503d8060008114610e70576040519150601f19603f3d011682016040523d82523d6000602084013e610e75565b606091505b5050905080610eb9576040517f08c379a0000000000000000000000000000000000000000000000000000000008152600401610eb09061150b565b60405180910390fd5b505050565b610ec6610c2b565b73ffffffffffffffffffffffffffffffffffffffff16610ee4610831565b73ffffffffffffffffffffffffffffffffffffffff1614610f3a576040517f08c379a0000000000000000000000000000000000000000000000000000000008152600401610f31906115ab565b60405180910390fd5b600034905080600160008473ffffffffffffffffffffffffffffffffffffffff1673ffffffffffffffffffffffffffffffffffffffff16815260200190815260200160002054610f8a9190611622565b600160008473ffffffffffffffffffffffffffffffffffffffff1673ffffffffffffffffffffffffffffffffffffffff168152602001908152602001600020819055508173ffffffffffffffffffffffffffffffffffffffff167f2da466a7b24304f47e87fa2e1e5a81b9831ce54fec19055ce277ca2f39ba42c48260405161101391906115eb565b60405180910390a25050565b60008135905061102e81611769565b92915050565b60008135905061104381611780565b92915050565b60006020828403121561105b57600080fd5b60006110698482850161101f565b91505092915050565b60006020828403121561108457600080fd5b600061109284828501611034565b91505092915050565b6110a48161168a565b82525050565b6110b381611678565b82525050565b6110c28161169c565b82525050565b6110d1816116e5565b82525050565b60006110e4603883611611565b91507f526566756e64457363726f773a2062656e65666963696172792063616e206f6e60008301527f6c79207769746864726177207768696c6520636c6f73656400000000000000006020830152604082019050919050565b600061114a602683611611565b91507f4f776e61626c653a206e6577206f776e657220697320746865207a65726f206160008301527f64647265737300000000000000000000000000000000000000000000000000006020830152604082019050919050565b60006111b0603a83611611565b91507f416464726573733a20756e61626c6520746f2073656e642076616c75652c207260008301527f6563697069656e74206d617920686176652072657665727465640000000000006020830152604082019050919050565b6000611216601d83611611565b91507f416464726573733a20696e73756666696369656e742062616c616e63650000006000830152602082019050919050565b6000611256602b83611611565b91507f526566756e64457363726f773a2063616e206f6e6c79206465706f736974207760008301527f68696c65206163746976650000000000000000000000000000000000000000006020830152604082019050919050565b60006112bc603383611611565b91507f436f6e646974696f6e616c457363726f773a207061796565206973206e6f742060008301527f616c6c6f77656420746f207769746864726177000000000000000000000000006020830152604082019050919050565b6000611322602983611611565b91507f526566756e64457363726f773a2063616e206f6e6c7920636c6f73652077686960008301527f6c652061637469766500000000000000000000000000000000000000000000006020830152604082019050919050565b6000611388602083611611565b91507f4f776e61626c653a2063616c6c6572206973206e6f7420746865206f776e65726000830152602082019050919050565b60006113c8600083611606565b9150600082019050919050565b60006113e2603283611611565b91507f526566756e64457363726f773a2063616e206f6e6c7920656e61626c6520726560008301527f66756e6473207768696c652061637469766500000000000000000000000000006020830152604082019050919050565b611444816116db565b82525050565b6000611455826113bb565b9150819050919050565b600060208201905061147460008301846110aa565b92915050565b600060208201905061148f600083018461109b565b92915050565b60006020820190506114aa60008301846110b9565b92915050565b60006020820190506114c560008301846110c8565b92915050565b600060208201905081810360008301526114e4816110d7565b9050919050565b600060208201905081810360008301526115048161113d565b9050919050565b60006020820190508181036000830152611524816111a3565b9050919050565b6000602082019050818103600083015261154481611209565b9050919050565b6000602082019050818103600083015261156481611249565b9050919050565b60006020820190508181036000830152611584816112af565b9050919050565b600060208201905081810360008301526115a481611315565b9050919050565b600060208201905081810360008301526115c48161137b565b9050919050565b600060208201905081810360008301526115e4816113d5565b9050919050565b6000602082019050611600600083018461143b565b92915050565b600081905092915050565b600082825260208201905092915050565b600061162d826116db565b9150611638836116db565b9250827fffffffffffffffffffffffffffffffffffffffffffffffffffffffffffffffff0382111561166d5761166c6116f7565b5b828201905092915050565b6000611683826116bb565b9050919050565b6000611695826116bb565b9050919050565b60008115159050919050565b60008190506116b682611755565b919050565b600073ffffffffffffffffffffffffffffffffffffffff82169050919050565b6000819050919050565b60006116f0826116a8565b9050919050565b7f4e487b7100000000000000000000000000000000000000000000000000000000600052601160045260246000fd5b7f4e487b7100000000000000000000000000000000000000000000000000000000600052602160045260246000fd5b6003811061176657611765611726565b5b50565b61177281611678565b811461177d57600080fd5b50565b6117898161168a565b811461179457600080fd5b5056fea2646970667358221220ce322576c9add39c4aa13deaab6a7586b7f0257c3d1a03597de2a268e15b571064736f6c63430008000033",
  "immutableReferences": {},
  "source": "pragma solidity ^0.8.0;\n\nimport \"@openzeppelin/contracts/token/ERC20/IERC20.sol\";\nimport \"../crowdsale/RefundableCrowdsale.sol\";\n\ncontract RefundableCrowdsaleImpl is RefundableCrowdsale {\n    constructor (\n        uint256 openingTime,\n        uint256 closingTime,\n        uint256 rate,\n        address payable wallet,\n        IERC20 token,\n        uint256 goal\n    )\n        Crowdsale(rate, wallet, token)\n        TimedCrowdsale(openingTime, closingTime)\n        RefundableCrowdsale(goal)\n    {\n    }\n}\n",
  "sourcePath": "/Users/imollov/Projects/smart-charity/contracts/mocks/RefundableCrowdsaleImpl.sol",
  "compiler": {
    "name": "solc",
    "version": "0.8.0+commit.c7dfd78e.Emscripten.clang"
  },
  "schemaVersion": "3.4.1",
  "updatedAt": "2021-07-30T14:11:09.502Z",
  "devdoc": {
    "kind": "dev",
    "methods": {
      "buyTokens(address)": {
        "details": "low level token purchase ***DO NOT OVERRIDE*** This function has a non-reentrancy guard, so it shouldn't be called by another `nonReentrant` function.",
        "params": {
          "beneficiary": "Recipient of the token purchase"
        }
      },
      "claimRefund(address)": {
        "details": "Investors can claim refunds here if crowdsale is unsuccessful.",
        "params": {
          "refundee": "Whose refund will be claimed."
        }
      },
      "closingTime()": {
        "returns": {
          "_0": "the crowdsale closing time."
        }
      },
      "finalize()": {
        "details": "Must be called after crowdsale ends, to do some extra finalization work. Calls the contract's finalization function."
      },
      "finalized()": {
        "returns": {
          "_0": "true if the crowdsale is finalized, false otherwise."
        }
      },
      "goal()": {
        "returns": {
          "_0": "minimum amount of funds to be raised in wei."
        }
      },
      "goalReached()": {
        "details": "Checks whether funding goal was reached.",
        "returns": {
          "_0": "Whether funding goal was reached"
        }
      },
      "hasClosed()": {
        "details": "Checks whether the period in which the crowdsale is open has already elapsed.",
        "returns": {
          "_0": "Whether crowdsale period has elapsed"
        }
      },
      "isOpen()": {
        "returns": {
          "_0": "true if the crowdsale is open, false otherwise."
        }
      },
      "openingTime()": {
        "returns": {
          "_0": "the crowdsale opening time."
        }
      },
      "rate()": {
        "returns": {
          "_0": "the number of token units a buyer gets per wei."
        }
      },
      "token()": {
        "returns": {
          "_0": "the token being sold."
        }
      },
      "wallet()": {
        "returns": {
          "_0": "the address where funds are collected."
        }
      },
      "weiRaised()": {
        "returns": {
          "_0": "the amount of wei raised."
        }
      }
    },
    "version": 1
  },
  "userdoc": {
    "events": {
      "TimedCrowdsaleExtended(uint256,uint256)": {
        "notice": "Event for crowdsale extending"
      },
      "TokensPurchased(address,address,uint256,uint256)": {
        "notice": "Event for token purchase logging"
      }
    },
    "kind": "user",
    "methods": {},
    "version": 1
  }
}