{
  "contractName": "TimedCrowdsaleImpl",
  "abi": [
    {
      "inputs": [
        {
          "internalType": "uint256",
          "name": "openingTime",
          "type": "uint256"
        },
        {
          "internalType": "uint256",
          "name": "closingTime",
          "type": "uint256"
        },
        {
          "internalType": "uint256",
          "name": "rate",
          "type": "uint256"
        },
        {
          "internalType": "address payable",
          "name": "wallet",
          "type": "address"
        },
        {
          "internalType": "contract IERC20",
          "name": "token",
          "type": "address"
        }
      ],
      "stateMutability": "nonpayable",
      "type": "constructor"
    },
    {
      "anonymous": false,
      "inputs": [
        {
          "indexed": false,
          "internalType": "uint256",
          "name": "prevClosingTime",
          "type": "uint256"
        },
        {
          "indexed": false,
          "internalType": "uint256",
          "name": "newClosingTime",
          "type": "uint256"
        }
      ],
      "name": "TimedCrowdsaleExtended",
      "type": "event"
    },
    {
      "anonymous": false,
      "inputs": [
        {
          "indexed": true,
          "internalType": "address",
          "name": "purchaser",
          "type": "address"
        },
        {
          "indexed": true,
          "internalType": "address",
          "name": "beneficiary",
          "type": "address"
        },
        {
          "indexed": false,
          "internalType": "uint256",
          "name": "value",
          "type": "uint256"
        },
        {
          "indexed": false,
          "internalType": "uint256",
          "name": "amount",
          "type": "uint256"
        }
      ],
      "name": "TokensPurchased",
      "type": "event"
    },
    {
      "inputs": [
        {
          "internalType": "address",
          "name": "beneficiary",
          "type": "address"
        }
      ],
      "name": "buyTokens",
      "outputs": [],
      "stateMutability": "payable",
      "type": "function"
    },
    {
      "inputs": [],
      "name": "closingTime",
      "outputs": [
        {
          "internalType": "uint256",
          "name": "",
          "type": "uint256"
        }
      ],
      "stateMutability": "view",
      "type": "function"
    },
    {
      "inputs": [],
      "name": "hasClosed",
      "outputs": [
        {
          "internalType": "bool",
          "name": "",
          "type": "bool"
        }
      ],
      "stateMutability": "view",
      "type": "function"
    },
    {
      "inputs": [],
      "name": "isOpen",
      "outputs": [
        {
          "internalType": "bool",
          "name": "",
          "type": "bool"
        }
      ],
      "stateMutability": "view",
      "type": "function"
    },
    {
      "inputs": [],
      "name": "openingTime",
      "outputs": [
        {
          "internalType": "uint256",
          "name": "",
          "type": "uint256"
        }
      ],
      "stateMutability": "view",
      "type": "function"
    },
    {
      "inputs": [],
      "name": "rate",
      "outputs": [
        {
          "internalType": "uint256",
          "name": "",
          "type": "uint256"
        }
      ],
      "stateMutability": "view",
      "type": "function"
    },
    {
      "inputs": [],
      "name": "token",
      "outputs": [
        {
          "internalType": "contract IERC20",
          "name": "",
          "type": "address"
        }
      ],
      "stateMutability": "view",
      "type": "function"
    },
    {
      "inputs": [],
      "name": "wallet",
      "outputs": [
        {
          "internalType": "address payable",
          "name": "",
          "type": "address"
        }
      ],
      "stateMutability": "view",
      "type": "function"
    },
    {
      "inputs": [],
      "name": "weiRaised",
      "outputs": [
        {
          "internalType": "uint256",
          "name": "",
          "type": "uint256"
        }
      ],
      "stateMutability": "view",
      "type": "function"
    },
    {
      "stateMutability": "payable",
      "type": "receive"
    },
    {
      "inputs": [
        {
          "internalType": "uint256",
          "name": "closingTime",
          "type": "uint256"
        }
      ],
      "name": "extendTime",
      "outputs": [],
      "stateMutability": "nonpayable",
      "type": "function"
    }
  ],
  "bytecode": "0x60806040523480156200001157600080fd5b50604051620019de380380620019de8339818101604052810190620000379190620002e7565b84848484846001600081905550600083116200008a576040517f08c379a00000000000000000000000000000000000000000000000000000000081526004016200008190620005b1565b60405180910390fd5b600073ffffffffffffffffffffffffffffffffffffffff168273ffffffffffffffffffffffffffffffffffffffff161415620000fd576040517f08c379a0000000000000000000000000000000000000000000000000000000008152600401620000f490620005d3565b60405180910390fd5b600073ffffffffffffffffffffffffffffffffffffffff168173ffffffffffffffffffffffffffffffffffffffff16141562000170576040517f08c379a000000000000000000000000000000000000000000000000000000000815260040162000167906200058f565b60405180910390fd5b8260038190555081600260006101000a81548173ffffffffffffffffffffffffffffffffffffffff021916908373ffffffffffffffffffffffffffffffffffffffff16021790555080600160006101000a81548173ffffffffffffffffffffffffffffffffffffffff021916908373ffffffffffffffffffffffffffffffffffffffff1602179055505050504282101562000242576040517f08c379a000000000000000000000000000000000000000000000000000000000815260040162000239906200054b565b60405180910390fd5b81811162000287576040517f08c379a00000000000000000000000000000000000000000000000000000000081526004016200027e906200056d565b60405180910390fd5b816005819055508060068190555050505050505050620006ba565b600081519050620002b3816200066c565b92915050565b600081519050620002ca8162000686565b92915050565b600081519050620002e181620006a0565b92915050565b600080600080600060a086880312156200030057600080fd5b60006200031088828901620002d0565b95505060206200032388828901620002d0565b94505060406200033688828901620002d0565b93505060606200034988828901620002a2565b92505060806200035c88828901620002b9565b9150509295509295909350565b600062000378603383620005f5565b91507f54696d656443726f776473616c653a206f70656e696e672074696d652069732060008301527f6265666f72652063757272656e742074696d65000000000000000000000000006020830152604082019050919050565b6000620003e0603783620005f5565b91507f54696d656443726f776473616c653a206f70656e696e672074696d652069732060008301527f6e6f74206265666f726520636c6f73696e672074696d650000000000000000006020830152604082019050919050565b600062000448602483620005f5565b91507f43726f776473616c653a20746f6b656e20697320746865207a65726f2061646460008301527f72657373000000000000000000000000000000000000000000000000000000006020830152604082019050919050565b6000620004b0601483620005f5565b91507f43726f776473616c653a207261746520697320300000000000000000000000006000830152602082019050919050565b6000620004f2602583620005f5565b91507f43726f776473616c653a2077616c6c657420697320746865207a65726f20616460008301527f64726573730000000000000000000000000000000000000000000000000000006020830152604082019050919050565b60006020820190508181036000830152620005668162000369565b9050919050565b600060208201905081810360008301526200058881620003d1565b9050919050565b60006020820190508181036000830152620005aa8162000439565b9050919050565b60006020820190508181036000830152620005cc81620004a1565b9050919050565b60006020820190508181036000830152620005ee81620004e3565b9050919050565b600082825260208201905092915050565b6000620006138262000642565b9050919050565b6000620006278262000642565b9050919050565b60006200063b8262000606565b9050919050565b600073ffffffffffffffffffffffffffffffffffffffff82169050919050565b6000819050919050565b62000677816200061a565b81146200068357600080fd5b50565b62000691816200062e565b81146200069d57600080fd5b50565b620006ab8162000662565b8114620006b757600080fd5b50565b61131480620006ca6000396000f3fe6080604052600436106100b2576000357c010000000000000000000000000000000000000000000000000000000090048063521eb27311610076578063521eb273146101a5578063a27aebbc146101d0578063b7a8807c146101f9578063ec8ac4d814610224578063fc0c546a14610240576100c9565b80631515bc2b146100ce5780632c4e722e146100f95780634042b66f1461012457806347535d7b1461014f5780634b6753bc1461017a576100c9565b366100c9576100c76100c261026b565b610273565b005b600080fd5b3480156100da57600080fd5b506100e3610399565b6040516100f09190610f0a565b60405180910390f35b34801561010557600080fd5b5061010e6103a5565b60405161011b9190611082565b60405180910390f35b34801561013057600080fd5b506101396103af565b6040516101469190611082565b60405180910390f35b34801561015b57600080fd5b506101646103b9565b6040516101719190610f0a565b60405180910390f35b34801561018657600080fd5b5061018f6103d4565b60405161019c9190611082565b60405180910390f35b3480156101b157600080fd5b506101ba6103de565b6040516101c79190610ec6565b60405180910390f35b3480156101dc57600080fd5b506101f760048036038101906101f29190610af9565b610408565b005b34801561020557600080fd5b5061020e610414565b60405161021b9190611082565b60405180910390f35b61023e60048036038101906102399190610aa7565b610273565b005b34801561024c57600080fd5b5061025561041e565b6040516102629190610f25565b60405180910390f35b600033905090565b600260005414156102b9576040517f08c379a00000000000000000000000000000000000000000000000000000000081526004016102b090611042565b60405180910390fd5b600260008190555060003490506102d08282610448565b60006102db8261049d565b90506102f2826004546104bb90919063ffffffff16565b60048190555061030283826104d1565b8273ffffffffffffffffffffffffffffffffffffffff1661032161026b565b73ffffffffffffffffffffffffffffffffffffffff167f6faf93231a456e552dbc9961f58d9713ee4f2e69d15f1975b050ef0911053a7b848460405161036892919061109d565b60405180910390a361037a83836104df565b6103826104e3565b61038c838361054e565b5050600160008190555050565b60006006544211905090565b6000600354905090565b6000600454905090565b600060055442101580156103cf57506006544211155b905090565b6000600654905090565b6000600260009054906101000a900473ffffffffffffffffffffffffffffffffffffffff16905090565b61041181610552565b50565b6000600554905090565b6000600160009054906101000a900473ffffffffffffffffffffffffffffffffffffffff16905090565b6104506103b9565b61048f576040517f08c379a000000000000000000000000000000000000000000000000000000000815260040161048690610f62565b60405180910390fd5b6104998282610623565b5050565b60006104b4600354836106db90919063ffffffff16565b9050919050565b600081836104c991906110f8565b905092915050565b6104db82826106f1565b5050565b5050565b600260009054906101000a900473ffffffffffffffffffffffffffffffffffffffff1673ffffffffffffffffffffffffffffffffffffffff166108fc349081150290604051600060405180830381858888f1935050505015801561054b573d6000803e3d6000fd5b50565b5050565b61055a610399565b1561059a576040517f08c379a000000000000000000000000000000000000000000000000000000000815260040161059190610fa2565b60405180910390fd5b60065481116105de576040517f08c379a00000000000000000000000000000000000000000000000000000000081526004016105d590610fc2565b60405180910390fd5b7f46711e222f558a07afd26e5e71b48ecb0a8b2cdcd40faeb1323e05e2c76a2f326006548260405161061192919061109d565b60405180910390a18060068190555050565b600073ffffffffffffffffffffffffffffffffffffffff168273ffffffffffffffffffffffffffffffffffffffff161415610693576040517f08c379a000000000000000000000000000000000000000000000000000000000815260040161068a90610fe2565b60405180910390fd5b60008114156106d7576040517f08c379a00000000000000000000000000000000000000000000000000000000081526004016106ce90611062565b60405180910390fd5b5050565b600081836106e9919061114e565b905092915050565b61073e8282600160009054906101000a900473ffffffffffffffffffffffffffffffffffffffff1673ffffffffffffffffffffffffffffffffffffffff166107429092919063ffffffff16565b5050565b6107df8363a9059cbb7c010000000000000000000000000000000000000000000000000000000002848460405160240161077d929190610ee1565b604051602081830303815290604052907bffffffffffffffffffffffffffffffffffffffffffffffffffffffff19166020820180517bffffffffffffffffffffffffffffffffffffffffffffffffffffffff83818316178352505050506107e4565b505050565b6000610846826040518060400160405280602081526020017f5361666545524332303a206c6f772d6c6576656c2063616c6c206661696c65648152508573ffffffffffffffffffffffffffffffffffffffff166108ab9092919063ffffffff16565b90506000815111156108a657808060200190518101906108669190610ad0565b6108a5576040517f08c379a000000000000000000000000000000000000000000000000000000000815260040161089c90611022565b60405180910390fd5b5b505050565b60606108ba84846000856108c3565b90509392505050565b6060823073ffffffffffffffffffffffffffffffffffffffff1631101561091f576040517f08c379a000000000000000000000000000000000000000000000000000000000815260040161091690610f82565b60405180910390fd5b610928856109ee565b610967576040517f08c379a000000000000000000000000000000000000000000000000000000000815260040161095e90611002565b60405180910390fd5b6000808673ffffffffffffffffffffffffffffffffffffffff1685876040516109909190610eaf565b60006040518083038185875af1925050503d80600081146109cd576040519150601f19603f3d011682016040523d82523d6000602084013e6109d2565b606091505b50915091506109e2828286610a01565b92505050949350505050565b600080823b905060008111915050919050565b60608315610a1157829050610a61565b600083511115610a245782518084602001fd5b816040517f08c379a0000000000000000000000000000000000000000000000000000000008152600401610a589190610f40565b60405180910390fd5b9392505050565b600081359050610a7781611299565b92915050565b600081519050610a8c816112b0565b92915050565b600081359050610aa1816112c7565b92915050565b600060208284031215610ab957600080fd5b6000610ac784828501610a68565b91505092915050565b600060208284031215610ae257600080fd5b6000610af084828501610a7d565b91505092915050565b600060208284031215610b0b57600080fd5b6000610b1984828501610a92565b91505092915050565b610b2b816111ba565b82525050565b610b3a816111a8565b82525050565b610b49816111cc565b82525050565b6000610b5a826110c6565b610b6481856110dc565b9350610b74818560208601611226565b80840191505092915050565b610b8981611202565b82525050565b6000610b9a826110d1565b610ba481856110e7565b9350610bb4818560208601611226565b610bbd81611288565b840191505092915050565b6000610bd56018836110e7565b91507f54696d656443726f776473616c653a206e6f74206f70656e00000000000000006000830152602082019050919050565b6000610c156026836110e7565b91507f416464726573733a20696e73756666696369656e742062616c616e636520666f60008301527f722063616c6c00000000000000000000000000000000000000000000000000006020830152604082019050919050565b6000610c7b601e836110e7565b91507f54696d656443726f776473616c653a20616c726561647920636c6f73656400006000830152602082019050919050565b6000610cbb603f836110e7565b91507f54696d656443726f776473616c653a206e657720636c6f73696e672074696d6560008301527f206973206265666f72652063757272656e7420636c6f73696e672074696d65006020830152604082019050919050565b6000610d21602a836110e7565b91507f43726f776473616c653a2062656e656669636961727920697320746865207a6560008301527f726f2061646472657373000000000000000000000000000000000000000000006020830152604082019050919050565b6000610d87601d836110e7565b91507f416464726573733a2063616c6c20746f206e6f6e2d636f6e74726163740000006000830152602082019050919050565b6000610dc7602a836110e7565b91507f5361666545524332303a204552433230206f7065726174696f6e20646964206e60008301527f6f742073756363656564000000000000000000000000000000000000000000006020830152604082019050919050565b6000610e2d601f836110e7565b91507f5265656e7472616e637947756172643a207265656e7472616e742063616c6c006000830152602082019050919050565b6000610e6d6019836110e7565b91507f43726f776473616c653a20776569416d6f756e742069732030000000000000006000830152602082019050919050565b610ea9816111f8565b82525050565b6000610ebb8284610b4f565b915081905092915050565b6000602082019050610edb6000830184610b22565b92915050565b6000604082019050610ef66000830185610b31565b610f036020830184610ea0565b9392505050565b6000602082019050610f1f6000830184610b40565b92915050565b6000602082019050610f3a6000830184610b80565b92915050565b60006020820190508181036000830152610f5a8184610b8f565b905092915050565b60006020820190508181036000830152610f7b81610bc8565b9050919050565b60006020820190508181036000830152610f9b81610c08565b9050919050565b60006020820190508181036000830152610fbb81610c6e565b9050919050565b60006020820190508181036000830152610fdb81610cae565b9050919050565b60006020820190508181036000830152610ffb81610d14565b9050919050565b6000602082019050818103600083015261101b81610d7a565b9050919050565b6000602082019050818103600083015261103b81610dba565b9050919050565b6000602082019050818103600083015261105b81610e20565b9050919050565b6000602082019050818103600083015261107b81610e60565b9050919050565b60006020820190506110976000830184610ea0565b92915050565b60006040820190506110b26000830185610ea0565b6110bf6020830184610ea0565b9392505050565b600081519050919050565b600081519050919050565b600081905092915050565b600082825260208201905092915050565b6000611103826111f8565b915061110e836111f8565b9250827fffffffffffffffffffffffffffffffffffffffffffffffffffffffffffffffff0382111561114357611142611259565b5b828201905092915050565b6000611159826111f8565b9150611164836111f8565b9250817fffffffffffffffffffffffffffffffffffffffffffffffffffffffffffffffff048311821515161561119d5761119c611259565b5b828202905092915050565b60006111b3826111d8565b9050919050565b60006111c5826111d8565b9050919050565b60008115159050919050565b600073ffffffffffffffffffffffffffffffffffffffff82169050919050565b6000819050919050565b600061120d82611214565b9050919050565b600061121f826111d8565b9050919050565b60005b83811015611244578082015181840152602081019050611229565b83811115611253576000848401525b50505050565b7f4e487b7100000000000000000000000000000000000000000000000000000000600052601160045260246000fd5b6000601f19601f8301169050919050565b6112a2816111a8565b81146112ad57600080fd5b50565b6112b9816111cc565b81146112c457600080fd5b50565b6112d0816111f8565b81146112db57600080fd5b5056fea26469706673582212205666d54d5c37be5fdedd0b5941f3bf1764983acfc46b74e2a149c37da45f51ea64736f6c63430008000033",
  "immutableReferences": {},
  "source": "pragma solidity ^0.8.0;\n\nimport \"@openzeppelin/contracts/token/ERC20/IERC20.sol\";\nimport \"../crowdsale/TimedCrowdsale.sol\";\n\ncontract TimedCrowdsaleImpl is TimedCrowdsale {\n    constructor (uint256 openingTime, uint256 closingTime, uint256 rate, address payable wallet, IERC20 token)\n        Crowdsale(rate, wallet, token)\n        TimedCrowdsale(openingTime, closingTime)\n    {\n    }\n\n    function extendTime(uint256 closingTime) public {\n        _extendTime(closingTime);\n    }\n}\n",
  "sourcePath": "/Users/imollov/Projects/smart-charity/contracts/mocks/TimedCrowdsaleImpl.sol",
  "compiler": {
    "name": "solc",
    "version": "0.8.0+commit.c7dfd78e.Emscripten.clang"
  },
  "schemaVersion": "3.4.1",
  "updatedAt": "2021-07-30T14:11:09.516Z",
  "devdoc": {
    "kind": "dev",
    "methods": {
      "buyTokens(address)": {
        "details": "low level token purchase ***DO NOT OVERRIDE*** This function has a non-reentrancy guard, so it shouldn't be called by another `nonReentrant` function.",
        "params": {
          "beneficiary": "Recipient of the token purchase"
        }
      },
      "closingTime()": {
        "returns": {
          "_0": "the crowdsale closing time."
        }
      },
      "hasClosed()": {
        "details": "Checks whether the period in which the crowdsale is open has already elapsed.",
        "returns": {
          "_0": "Whether crowdsale period has elapsed"
        }
      },
      "isOpen()": {
        "returns": {
          "_0": "true if the crowdsale is open, false otherwise."
        }
      },
      "openingTime()": {
        "returns": {
          "_0": "the crowdsale opening time."
        }
      },
      "rate()": {
        "returns": {
          "_0": "the number of token units a buyer gets per wei."
        }
      },
      "token()": {
        "returns": {
          "_0": "the token being sold."
        }
      },
      "wallet()": {
        "returns": {
          "_0": "the address where funds are collected."
        }
      },
      "weiRaised()": {
        "returns": {
          "_0": "the amount of wei raised."
        }
      }
    },
    "version": 1
  },
  "userdoc": {
    "events": {
      "TimedCrowdsaleExtended(uint256,uint256)": {
        "notice": "Event for crowdsale extending"
      },
      "TokensPurchased(address,address,uint256,uint256)": {
        "notice": "Event for token purchase logging"
      }
    },
    "kind": "user",
    "methods": {},
    "version": 1
  }
}